{
  "_format": "hh-sol-artifact-1",
  "contractName": "SimpleERC721",
  "sourceName": "contracts/SimpleERC721.sol",
  "abi": [
    {
      "inputs": [
        {
          "internalType": "string",
          "name": "name",
          "type": "string"
        },
        {
          "internalType": "string",
          "name": "sym",
          "type": "string"
        },
        {
          "internalType": "string",
          "name": "baseuri",
          "type": "string"
        },
        {
          "internalType": "uint256",
          "name": "max",
          "type": "uint256"
        }
      ],
      "stateMutability": "nonpayable",
      "type": "constructor"
    },
    {
      "anonymous": false,
      "inputs": [
        {
          "indexed": true,
          "internalType": "address",
          "name": "owner",
          "type": "address"
        },
        {
          "indexed": true,
          "internalType": "address",
          "name": "approved",
          "type": "address"
        },
        {
          "indexed": true,
          "internalType": "uint256",
          "name": "tokenId",
          "type": "uint256"
        }
      ],
      "name": "Approval",
      "type": "event"
    },
    {
      "anonymous": false,
      "inputs": [
        {
          "indexed": true,
          "internalType": "address",
          "name": "owner",
          "type": "address"
        },
        {
          "indexed": true,
          "internalType": "address",
          "name": "operator",
          "type": "address"
        },
        {
          "indexed": false,
          "internalType": "bool",
          "name": "approved",
          "type": "bool"
        }
      ],
      "name": "ApprovalForAll",
      "type": "event"
    },
    {
      "anonymous": false,
      "inputs": [
        {
          "indexed": true,
          "internalType": "address",
          "name": "previousOwner",
          "type": "address"
        },
        {
          "indexed": true,
          "internalType": "address",
          "name": "newOwner",
          "type": "address"
        }
      ],
      "name": "OwnershipTransferred",
      "type": "event"
    },
    {
      "anonymous": false,
      "inputs": [
        {
          "indexed": true,
          "internalType": "address",
          "name": "from",
          "type": "address"
        },
        {
          "indexed": true,
          "internalType": "address",
          "name": "to",
          "type": "address"
        },
        {
          "indexed": true,
          "internalType": "uint256",
          "name": "tokenId",
          "type": "uint256"
        }
      ],
      "name": "Transfer",
      "type": "event"
    },
    {
      "inputs": [
        {
          "internalType": "address",
          "name": "to",
          "type": "address"
        },
        {
          "internalType": "uint256",
          "name": "tokenId",
          "type": "uint256"
        }
      ],
      "name": "approve",
      "outputs": [],
      "stateMutability": "nonpayable",
      "type": "function"
    },
    {
      "inputs": [
        {
          "internalType": "address",
          "name": "owner",
          "type": "address"
        }
      ],
      "name": "balanceOf",
      "outputs": [
        {
          "internalType": "uint256",
          "name": "",
          "type": "uint256"
        }
      ],
      "stateMutability": "view",
      "type": "function"
    },
    {
      "inputs": [
        {
          "internalType": "uint256",
          "name": "tokenId",
          "type": "uint256"
        }
      ],
      "name": "getApproved",
      "outputs": [
        {
          "internalType": "address",
          "name": "",
          "type": "address"
        }
      ],
      "stateMutability": "view",
      "type": "function"
    },
    {
      "inputs": [
        {
          "internalType": "address",
          "name": "owner",
          "type": "address"
        },
        {
          "internalType": "address",
          "name": "operator",
          "type": "address"
        }
      ],
      "name": "isApprovedForAll",
      "outputs": [
        {
          "internalType": "bool",
          "name": "",
          "type": "bool"
        }
      ],
      "stateMutability": "view",
      "type": "function"
    },
    {
      "inputs": [],
      "name": "name",
      "outputs": [
        {
          "internalType": "string",
          "name": "",
          "type": "string"
        }
      ],
      "stateMutability": "view",
      "type": "function"
    },
    {
      "inputs": [],
      "name": "owner",
      "outputs": [
        {
          "internalType": "address",
          "name": "",
          "type": "address"
        }
      ],
      "stateMutability": "view",
      "type": "function"
    },
    {
      "inputs": [
        {
          "internalType": "uint256",
          "name": "tokenId",
          "type": "uint256"
        }
      ],
      "name": "ownerOf",
      "outputs": [
        {
          "internalType": "address",
          "name": "",
          "type": "address"
        }
      ],
      "stateMutability": "view",
      "type": "function"
    },
    {
      "inputs": [],
      "name": "publicMint",
      "outputs": [],
      "stateMutability": "nonpayable",
      "type": "function"
    },
    {
      "inputs": [],
      "name": "renounceOwnership",
      "outputs": [],
      "stateMutability": "nonpayable",
      "type": "function"
    },
    {
      "inputs": [
        {
          "internalType": "address",
          "name": "from",
          "type": "address"
        },
        {
          "internalType": "address",
          "name": "to",
          "type": "address"
        },
        {
          "internalType": "uint256",
          "name": "tokenId",
          "type": "uint256"
        }
      ],
      "name": "safeTransferFrom",
      "outputs": [],
      "stateMutability": "nonpayable",
      "type": "function"
    },
    {
      "inputs": [
        {
          "internalType": "address",
          "name": "from",
          "type": "address"
        },
        {
          "internalType": "address",
          "name": "to",
          "type": "address"
        },
        {
          "internalType": "uint256",
          "name": "tokenId",
          "type": "uint256"
        },
        {
          "internalType": "bytes",
          "name": "data",
          "type": "bytes"
        }
      ],
      "name": "safeTransferFrom",
      "outputs": [],
      "stateMutability": "nonpayable",
      "type": "function"
    },
    {
      "inputs": [
        {
          "internalType": "address",
          "name": "operator",
          "type": "address"
        },
        {
          "internalType": "bool",
          "name": "approved",
          "type": "bool"
        }
      ],
      "name": "setApprovalForAll",
      "outputs": [],
      "stateMutability": "nonpayable",
      "type": "function"
    },
    {
      "inputs": [
        {
          "internalType": "bytes4",
          "name": "interfaceId",
          "type": "bytes4"
        }
      ],
      "name": "supportsInterface",
      "outputs": [
        {
          "internalType": "bool",
          "name": "",
          "type": "bool"
        }
      ],
      "stateMutability": "view",
      "type": "function"
    },
    {
      "inputs": [],
      "name": "symbol",
      "outputs": [
        {
          "internalType": "string",
          "name": "",
          "type": "string"
        }
      ],
      "stateMutability": "view",
      "type": "function"
    },
    {
      "inputs": [
        {
          "internalType": "uint256",
          "name": "index",
          "type": "uint256"
        }
      ],
      "name": "tokenByIndex",
      "outputs": [
        {
          "internalType": "uint256",
          "name": "",
          "type": "uint256"
        }
      ],
      "stateMutability": "view",
      "type": "function"
    },
    {
      "inputs": [
        {
          "internalType": "address",
          "name": "owner",
          "type": "address"
        },
        {
          "internalType": "uint256",
          "name": "index",
          "type": "uint256"
        }
      ],
      "name": "tokenOfOwnerByIndex",
      "outputs": [
        {
          "internalType": "uint256",
          "name": "",
          "type": "uint256"
        }
      ],
      "stateMutability": "view",
      "type": "function"
    },
    {
      "inputs": [
        {
          "internalType": "uint256",
          "name": "tokenId",
          "type": "uint256"
        }
      ],
      "name": "tokenURI",
      "outputs": [
        {
          "internalType": "string",
          "name": "",
          "type": "string"
        }
      ],
      "stateMutability": "view",
      "type": "function"
    },
    {
      "inputs": [],
      "name": "totalSupply",
      "outputs": [
        {
          "internalType": "uint256",
          "name": "",
          "type": "uint256"
        }
      ],
      "stateMutability": "view",
      "type": "function"
    },
    {
      "inputs": [
        {
          "internalType": "address",
          "name": "from",
          "type": "address"
        },
        {
          "internalType": "address",
          "name": "to",
          "type": "address"
        },
        {
          "internalType": "uint256",
          "name": "tokenId",
          "type": "uint256"
        }
      ],
      "name": "transferFrom",
      "outputs": [],
      "stateMutability": "nonpayable",
      "type": "function"
    },
    {
      "inputs": [
        {
          "internalType": "address",
          "name": "newOwner",
          "type": "address"
        }
      ],
      "name": "transferOwnership",
      "outputs": [],
      "stateMutability": "nonpayable",
      "type": "function"
    }
  ],
  "bytecode": "0x60a06040523480156200001157600080fd5b5060405162003a4138038062003a4183398181016040528101906200003791906200033f565b838381600090816200004a91906200064f565b5080600190816200005c91906200064f565b5050506200007f62000073620000a360201b60201c565b620000ab60201b60201c565b806080818152505081600c90816200009891906200064f565b505050505062000736565b600033905090565b6000600a60009054906101000a900473ffffffffffffffffffffffffffffffffffffffff16905081600a60006101000a81548173ffffffffffffffffffffffffffffffffffffffff021916908373ffffffffffffffffffffffffffffffffffffffff1602179055508173ffffffffffffffffffffffffffffffffffffffff168173ffffffffffffffffffffffffffffffffffffffff167f8be0079c531659141344cd1fd0a4f28419497f9722a3daafe3b4186f6b6457e060405160405180910390a35050565b6000604051905090565b600080fd5b600080fd5b600080fd5b600080fd5b6000601f19601f8301169050919050565b7f4e487b7100000000000000000000000000000000000000000000000000000000600052604160045260246000fd5b620001da826200018f565b810181811067ffffffffffffffff82111715620001fc57620001fb620001a0565b5b80604052505050565b60006200021162000171565b90506200021f8282620001cf565b919050565b600067ffffffffffffffff821115620002425762000241620001a0565b5b6200024d826200018f565b9050602081019050919050565b60005b838110156200027a5780820151818401526020810190506200025d565b60008484015250505050565b60006200029d620002978462000224565b62000205565b905082815260208101848484011115620002bc57620002bb6200018a565b5b620002c98482856200025a565b509392505050565b600082601f830112620002e957620002e862000185565b5b8151620002fb84826020860162000286565b91505092915050565b6000819050919050565b620003198162000304565b81146200032557600080fd5b50565b60008151905062000339816200030e565b92915050565b600080600080608085870312156200035c576200035b6200017b565b5b600085015167ffffffffffffffff8111156200037d576200037c62000180565b5b6200038b87828801620002d1565b945050602085015167ffffffffffffffff811115620003af57620003ae62000180565b5b620003bd87828801620002d1565b935050604085015167ffffffffffffffff811115620003e157620003e062000180565b5b620003ef87828801620002d1565b9250506060620004028782880162000328565b91505092959194509250565b600081519050919050565b7f4e487b7100000000000000000000000000000000000000000000000000000000600052602260045260246000fd5b600060028204905060018216806200046157607f821691505b60208210810362000477576200047662000419565b5b50919050565b60008190508160005260206000209050919050565b60006020601f8301049050919050565b600082821b905092915050565b600060088302620004e17fffffffffffffffffffffffffffffffffffffffffffffffffffffffffffffffff82620004a2565b620004ed8683620004a2565b95508019841693508086168417925050509392505050565b6000819050919050565b6000620005306200052a620005248462000304565b62000505565b62000304565b9050919050565b6000819050919050565b6200054c836200050f565b620005646200055b8262000537565b848454620004af565b825550505050565b600090565b6200057b6200056c565b6200058881848462000541565b505050565b5b81811015620005b057620005a460008262000571565b6001810190506200058e565b5050565b601f821115620005ff57620005c9816200047d565b620005d48462000492565b81016020851015620005e4578190505b620005fc620005f38562000492565b8301826200058d565b50505b505050565b600082821c905092915050565b6000620006246000198460080262000604565b1980831691505092915050565b60006200063f838362000611565b9150826002028217905092915050565b6200065a826200040e565b67ffffffffffffffff811115620006765762000675620001a0565b5b62000682825462000448565b6200068f828285620005b4565b600060209050601f831160018114620006c75760008415620006b2578287015190505b620006be858262000631565b8655506200072e565b601f198416620006d7866200047d565b60005b828110156200070157848901518255600182019150602085019450602081019050620006da565b868310156200072157848901516200071d601f89168262000611565b8355505b6001600288020188555050505b505050505050565b6080516132ef62000752600039600061065501526132ef6000f3fe608060405234801561001057600080fd5b506004361061012c5760003560e01c80636352211e116100ad578063a22cb46511610071578063a22cb46514610331578063b88d4fde1461034d578063c87b56dd14610369578063e985e9c514610399578063f2fde38b146103c95761012c565b80636352211e1461028b57806370a08231146102bb578063715018a6146102eb5780638da5cb5b146102f557806395d89b41146103135761012c565b806323b872dd116100f457806323b872dd146101e957806326092b83146102055780632f745c591461020f57806342842e0e1461023f5780634f6ccce71461025b5761012c565b806301ffc9a71461013157806306fdde0314610161578063081812fc1461017f578063095ea7b3146101af57806318160ddd146101cb575b600080fd5b61014b6004803603810190610146919061220a565b6103e5565b6040516101589190612252565b60405180910390f35b6101696103f7565b60405161017691906122fd565b60405180910390f35b61019960048036038101906101949190612355565b610489565b6040516101a691906123c3565b60405180910390f35b6101c960048036038101906101c4919061240a565b6104cf565b005b6101d36105e6565b6040516101e09190612459565b60405180910390f35b61020360048036038101906101fe9190612474565b6105f3565b005b61020d610653565b005b6102296004803603810190610224919061240a565b6106e1565b6040516102369190612459565b60405180910390f35b61025960048036038101906102549190612474565b610786565b005b61027560048036038101906102709190612355565b6107a6565b6040516102829190612459565b60405180910390f35b6102a560048036038101906102a09190612355565b610817565b6040516102b291906123c3565b60405180910390f35b6102d560048036038101906102d091906124c7565b61089d565b6040516102e29190612459565b60405180910390f35b6102f3610954565b005b6102fd610968565b60405161030a91906123c3565b60405180910390f35b61031b610992565b60405161032891906122fd565b60405180910390f35b61034b60048036038101906103469190612520565b610a24565b005b61036760048036038101906103629190612695565b610a3a565b005b610383600480360381019061037e9190612355565b610a9c565b60405161039091906122fd565b60405180910390f35b6103b360048036038101906103ae9190612718565b610b04565b6040516103c09190612252565b60405180910390f35b6103e360048036038101906103de91906124c7565b610b98565b005b60006103f082610c1b565b9050919050565b60606000805461040690612787565b80601f016020809104026020016040519081016040528092919081815260200182805461043290612787565b801561047f5780601f106104545761010080835404028352916020019161047f565b820191906000526020600020905b81548152906001019060200180831161046257829003601f168201915b5050505050905090565b600061049482610c95565b6004600083815260200190815260200160002060009054906101000a900473ffffffffffffffffffffffffffffffffffffffff169050919050565b60006104da82610817565b90508073ffffffffffffffffffffffffffffffffffffffff168373ffffffffffffffffffffffffffffffffffffffff160361054a576040517f08c379a00000000000000000000000000000000000000000000000000000000081526004016105419061282a565b60405180910390fd5b8073ffffffffffffffffffffffffffffffffffffffff16610569610ce0565b73ffffffffffffffffffffffffffffffffffffffff161480610598575061059781610592610ce0565b610b04565b5b6105d7576040517f08c379a00000000000000000000000000000000000000000000000000000000081526004016105ce906128bc565b60405180910390fd5b6105e18383610ce8565b505050565b6000600880549050905090565b6106046105fe610ce0565b82610da1565b610643576040517f08c379a000000000000000000000000000000000000000000000000000000000815260040161063a9061294e565b60405180910390fd5b61064e838383610e36565b505050565b7f000000000000000000000000000000000000000000000000000000000000000061067c6105e6565b106106bc576040517f08c379a00000000000000000000000000000000000000000000000000000000081526004016106b3906129ba565b60405180910390fd5b60006106c8600b61112f565b90506106d4600b61113d565b6106de3382611153565b50565b60006106ec8361089d565b821061072d576040517f08c379a000000000000000000000000000000000000000000000000000000000815260040161072490612a4c565b60405180910390fd5b600660008473ffffffffffffffffffffffffffffffffffffffff1673ffffffffffffffffffffffffffffffffffffffff168152602001908152602001600020600083815260200190815260200160002054905092915050565b6107a183838360405180602001604052806000815250610a3a565b505050565b60006107b06105e6565b82106107f1576040517f08c379a00000000000000000000000000000000000000000000000000000000081526004016107e890612ade565b60405180910390fd5b6008828154811061080557610804612afe565b5b90600052602060002001549050919050565b60008061082383611171565b9050600073ffffffffffffffffffffffffffffffffffffffff168173ffffffffffffffffffffffffffffffffffffffff1603610894576040517f08c379a000000000000000000000000000000000000000000000000000000000815260040161088b90612b79565b60405180910390fd5b80915050919050565b60008073ffffffffffffffffffffffffffffffffffffffff168273ffffffffffffffffffffffffffffffffffffffff160361090d576040517f08c379a000000000000000000000000000000000000000000000000000000000815260040161090490612c0b565b60405180910390fd5b600360008373ffffffffffffffffffffffffffffffffffffffff1673ffffffffffffffffffffffffffffffffffffffff168152602001908152602001600020549050919050565b61095c6111ae565b610966600061122c565b565b6000600a60009054906101000a900473ffffffffffffffffffffffffffffffffffffffff16905090565b6060600180546109a190612787565b80601f01602080910402602001604051908101604052809291908181526020018280546109cd90612787565b8015610a1a5780601f106109ef57610100808354040283529160200191610a1a565b820191906000526020600020905b8154815290600101906020018083116109fd57829003601f168201915b5050505050905090565b610a36610a2f610ce0565b83836112f2565b5050565b610a4b610a45610ce0565b83610da1565b610a8a576040517f08c379a0000000000000000000000000000000000000000000000000000000008152600401610a819061294e565b60405180910390fd5b610a968484848461145e565b50505050565b6060610aa782610c95565b6000610ab16114ba565b90506000815111610ad15760405180602001604052806000815250610afc565b80610adb8461154c565b604051602001610aec929190612c67565b6040516020818303038152906040525b915050919050565b6000600560008473ffffffffffffffffffffffffffffffffffffffff1673ffffffffffffffffffffffffffffffffffffffff16815260200190815260200160002060008373ffffffffffffffffffffffffffffffffffffffff1673ffffffffffffffffffffffffffffffffffffffff16815260200190815260200160002060009054906101000a900460ff16905092915050565b610ba06111ae565b600073ffffffffffffffffffffffffffffffffffffffff168173ffffffffffffffffffffffffffffffffffffffff1603610c0f576040517f08c379a0000000000000000000000000000000000000000000000000000000008152600401610c0690612cfd565b60405180910390fd5b610c188161122c565b50565b60007f780e9d63000000000000000000000000000000000000000000000000000000007bffffffffffffffffffffffffffffffffffffffffffffffffffffffff1916827bffffffffffffffffffffffffffffffffffffffffffffffffffffffff19161480610c8e5750610c8d8261161a565b5b9050919050565b610c9e816116fc565b610cdd576040517f08c379a0000000000000000000000000000000000000000000000000000000008152600401610cd490612b79565b60405180910390fd5b50565b600033905090565b816004600083815260200190815260200160002060006101000a81548173ffffffffffffffffffffffffffffffffffffffff021916908373ffffffffffffffffffffffffffffffffffffffff160217905550808273ffffffffffffffffffffffffffffffffffffffff16610d5b83610817565b73ffffffffffffffffffffffffffffffffffffffff167f8c5be1e5ebec7d5bd14f71427d1e84f3dd0314c0f7b2291e5b200ac8c7c3b92560405160405180910390a45050565b600080610dad83610817565b90508073ffffffffffffffffffffffffffffffffffffffff168473ffffffffffffffffffffffffffffffffffffffff161480610def5750610dee8185610b04565b5b80610e2d57508373ffffffffffffffffffffffffffffffffffffffff16610e1584610489565b73ffffffffffffffffffffffffffffffffffffffff16145b91505092915050565b8273ffffffffffffffffffffffffffffffffffffffff16610e5682610817565b73ffffffffffffffffffffffffffffffffffffffff1614610eac576040517f08c379a0000000000000000000000000000000000000000000000000000000008152600401610ea390612d8f565b60405180910390fd5b600073ffffffffffffffffffffffffffffffffffffffff168273ffffffffffffffffffffffffffffffffffffffff1603610f1b576040517f08c379a0000000000000000000000000000000000000000000000000000000008152600401610f1290612e21565b60405180910390fd5b610f28838383600161173d565b8273ffffffffffffffffffffffffffffffffffffffff16610f4882610817565b73ffffffffffffffffffffffffffffffffffffffff1614610f9e576040517f08c379a0000000000000000000000000000000000000000000000000000000008152600401610f9590612d8f565b60405180910390fd5b6004600082815260200190815260200160002060006101000a81549073ffffffffffffffffffffffffffffffffffffffff02191690556001600360008573ffffffffffffffffffffffffffffffffffffffff1673ffffffffffffffffffffffffffffffffffffffff168152602001908152602001600020600082825403925050819055506001600360008473ffffffffffffffffffffffffffffffffffffffff1673ffffffffffffffffffffffffffffffffffffffff16815260200190815260200160002060008282540192505081905550816002600083815260200190815260200160002060006101000a81548173ffffffffffffffffffffffffffffffffffffffff021916908373ffffffffffffffffffffffffffffffffffffffff160217905550808273ffffffffffffffffffffffffffffffffffffffff168473ffffffffffffffffffffffffffffffffffffffff167fddf252ad1be2c89b69c2b068fc378daa952ba7f163c4a11628f55a4df523b3ef60405160405180910390a461112a838383600161174f565b505050565b600081600001549050919050565b6001816000016000828254019250508190555050565b61116d828260405180602001604052806000815250611755565b5050565b60006002600083815260200190815260200160002060009054906101000a900473ffffffffffffffffffffffffffffffffffffffff169050919050565b6111b6610ce0565b73ffffffffffffffffffffffffffffffffffffffff166111d4610968565b73ffffffffffffffffffffffffffffffffffffffff161461122a576040517f08c379a000000000000000000000000000000000000000000000000000000000815260040161122190612e8d565b60405180910390fd5b565b6000600a60009054906101000a900473ffffffffffffffffffffffffffffffffffffffff16905081600a60006101000a81548173ffffffffffffffffffffffffffffffffffffffff021916908373ffffffffffffffffffffffffffffffffffffffff1602179055508173ffffffffffffffffffffffffffffffffffffffff168173ffffffffffffffffffffffffffffffffffffffff167f8be0079c531659141344cd1fd0a4f28419497f9722a3daafe3b4186f6b6457e060405160405180910390a35050565b8173ffffffffffffffffffffffffffffffffffffffff168373ffffffffffffffffffffffffffffffffffffffff1603611360576040517f08c379a000000000000000000000000000000000000000000000000000000000815260040161135790612ef9565b60405180910390fd5b80600560008573ffffffffffffffffffffffffffffffffffffffff1673ffffffffffffffffffffffffffffffffffffffff16815260200190815260200160002060008473ffffffffffffffffffffffffffffffffffffffff1673ffffffffffffffffffffffffffffffffffffffff16815260200190815260200160002060006101000a81548160ff0219169083151502179055508173ffffffffffffffffffffffffffffffffffffffff168373ffffffffffffffffffffffffffffffffffffffff167f17307eab39ab6107e8899845ad3d59bd9653f200f220920489ca2b5937696c31836040516114519190612252565b60405180910390a3505050565b611469848484610e36565b611475848484846117b0565b6114b4576040517f08c379a00000000000000000000000000000000000000000000000000000000081526004016114ab90612f8b565b60405180910390fd5b50505050565b6060600c80546114c990612787565b80601f01602080910402602001604051908101604052809291908181526020018280546114f590612787565b80156115425780601f1061151757610100808354040283529160200191611542565b820191906000526020600020905b81548152906001019060200180831161152557829003601f168201915b5050505050905090565b60606000600161155b84611937565b01905060008167ffffffffffffffff81111561157a5761157961256a565b5b6040519080825280601f01601f1916602001820160405280156115ac5781602001600182028036833780820191505090505b509050600082602001820190505b60011561160f578080600190039150507f3031323334353637383961626364656600000000000000000000000000000000600a86061a8153600a858161160357611602612fab565b5b049450600085036115ba575b819350505050919050565b60007f80ac58cd000000000000000000000000000000000000000000000000000000007bffffffffffffffffffffffffffffffffffffffffffffffffffffffff1916827bffffffffffffffffffffffffffffffffffffffffffffffffffffffff191614806116e557507f5b5e139f000000000000000000000000000000000000000000000000000000007bffffffffffffffffffffffffffffffffffffffffffffffffffffffff1916827bffffffffffffffffffffffffffffffffffffffffffffffffffffffff1916145b806116f557506116f482611a8a565b5b9050919050565b60008073ffffffffffffffffffffffffffffffffffffffff1661171e83611171565b73ffffffffffffffffffffffffffffffffffffffff1614159050919050565b61174984848484611af4565b50505050565b50505050565b61175f8383611c52565b61176c60008484846117b0565b6117ab576040517f08c379a00000000000000000000000000000000000000000000000000000000081526004016117a290612f8b565b60405180910390fd5b505050565b60006117d18473ffffffffffffffffffffffffffffffffffffffff16611e6f565b1561192a578373ffffffffffffffffffffffffffffffffffffffff1663150b7a026117fa610ce0565b8786866040518563ffffffff1660e01b815260040161181c949392919061302f565b6020604051808303816000875af192505050801561185857506040513d601f19601f820116820180604052508101906118559190613090565b60015b6118da573d8060008114611888576040519150601f19603f3d011682016040523d82523d6000602084013e61188d565b606091505b5060008151036118d2576040517f08c379a00000000000000000000000000000000000000000000000000000000081526004016118c990612f8b565b60405180910390fd5b805181602001fd5b63150b7a0260e01b7bffffffffffffffffffffffffffffffffffffffffffffffffffffffff1916817bffffffffffffffffffffffffffffffffffffffffffffffffffffffff19161491505061192f565b600190505b949350505050565b600080600090507a184f03e93ff9f4daa797ed6e38ed64bf6a1f0100000000000000008310611995577a184f03e93ff9f4daa797ed6e38ed64bf6a1f010000000000000000838161198b5761198a612fab565b5b0492506040810190505b6d04ee2d6d415b85acef810000000083106119d2576d04ee2d6d415b85acef810000000083816119c8576119c7612fab565b5b0492506020810190505b662386f26fc100008310611a0157662386f26fc1000083816119f7576119f6612fab565b5b0492506010810190505b6305f5e1008310611a2a576305f5e1008381611a2057611a1f612fab565b5b0492506008810190505b6127108310611a4f576127108381611a4557611a44612fab565b5b0492506004810190505b60648310611a725760648381611a6857611a67612fab565b5b0492506002810190505b600a8310611a81576001810190505b80915050919050565b60007f01ffc9a7000000000000000000000000000000000000000000000000000000007bffffffffffffffffffffffffffffffffffffffffffffffffffffffff1916827bffffffffffffffffffffffffffffffffffffffffffffffffffffffff1916149050919050565b611b0084848484611e92565b6001811115611b44576040517f08c379a0000000000000000000000000000000000000000000000000000000008152600401611b3b9061312f565b60405180910390fd5b6000829050600073ffffffffffffffffffffffffffffffffffffffff168573ffffffffffffffffffffffffffffffffffffffff1603611b8b57611b8681611e98565b611bca565b8373ffffffffffffffffffffffffffffffffffffffff168573ffffffffffffffffffffffffffffffffffffffff1614611bc957611bc88582611ee1565b5b5b600073ffffffffffffffffffffffffffffffffffffffff168473ffffffffffffffffffffffffffffffffffffffff1603611c0c57611c078161204e565b611c4b565b8473ffffffffffffffffffffffffffffffffffffffff168473ffffffffffffffffffffffffffffffffffffffff1614611c4a57611c49848261211f565b5b5b5050505050565b600073ffffffffffffffffffffffffffffffffffffffff168273ffffffffffffffffffffffffffffffffffffffff1603611cc1576040517f08c379a0000000000000000000000000000000000000000000000000000000008152600401611cb89061319b565b60405180910390fd5b611cca816116fc565b15611d0a576040517f08c379a0000000000000000000000000000000000000000000000000000000008152600401611d0190613207565b60405180910390fd5b611d1860008383600161173d565b611d21816116fc565b15611d61576040517f08c379a0000000000000000000000000000000000000000000000000000000008152600401611d5890613207565b60405180910390fd5b6001600360008473ffffffffffffffffffffffffffffffffffffffff1673ffffffffffffffffffffffffffffffffffffffff16815260200190815260200160002060008282540192505081905550816002600083815260200190815260200160002060006101000a81548173ffffffffffffffffffffffffffffffffffffffff021916908373ffffffffffffffffffffffffffffffffffffffff160217905550808273ffffffffffffffffffffffffffffffffffffffff16600073ffffffffffffffffffffffffffffffffffffffff167fddf252ad1be2c89b69c2b068fc378daa952ba7f163c4a11628f55a4df523b3ef60405160405180910390a4611e6b60008383600161174f565b5050565b6000808273ffffffffffffffffffffffffffffffffffffffff163b119050919050565b50505050565b6008805490506009600083815260200190815260200160002081905550600881908060018154018082558091505060019003906000526020600020016000909190919091505550565b60006001611eee8461089d565b611ef89190613256565b9050600060076000848152602001908152602001600020549050818114611fdd576000600660008673ffffffffffffffffffffffffffffffffffffffff1673ffffffffffffffffffffffffffffffffffffffff168152602001908152602001600020600084815260200190815260200160002054905080600660008773ffffffffffffffffffffffffffffffffffffffff1673ffffffffffffffffffffffffffffffffffffffff168152602001908152602001600020600084815260200190815260200160002081905550816007600083815260200190815260200160002081905550505b6007600084815260200190815260200160002060009055600660008573ffffffffffffffffffffffffffffffffffffffff1673ffffffffffffffffffffffffffffffffffffffff16815260200190815260200160002060008381526020019081526020016000206000905550505050565b600060016008805490506120629190613256565b905060006009600084815260200190815260200160002054905060006008838154811061209257612091612afe565b5b9060005260206000200154905080600883815481106120b4576120b3612afe565b5b9060005260206000200181905550816009600083815260200190815260200160002081905550600960008581526020019081526020016000206000905560088054806121035761210261328a565b5b6001900381819060005260206000200160009055905550505050565b600061212a8361089d565b905081600660008573ffffffffffffffffffffffffffffffffffffffff1673ffffffffffffffffffffffffffffffffffffffff168152602001908152602001600020600083815260200190815260200160002081905550806007600084815260200190815260200160002081905550505050565b6000604051905090565b600080fd5b600080fd5b60007fffffffff0000000000000000000000000000000000000000000000000000000082169050919050565b6121e7816121b2565b81146121f257600080fd5b50565b600081359050612204816121de565b92915050565b6000602082840312156122205761221f6121a8565b5b600061222e848285016121f5565b91505092915050565b60008115159050919050565b61224c81612237565b82525050565b60006020820190506122676000830184612243565b92915050565b600081519050919050565b600082825260208201905092915050565b60005b838110156122a757808201518184015260208101905061228c565b60008484015250505050565b6000601f19601f8301169050919050565b60006122cf8261226d565b6122d98185612278565b93506122e9818560208601612289565b6122f2816122b3565b840191505092915050565b6000602082019050818103600083015261231781846122c4565b905092915050565b6000819050919050565b6123328161231f565b811461233d57600080fd5b50565b60008135905061234f81612329565b92915050565b60006020828403121561236b5761236a6121a8565b5b600061237984828501612340565b91505092915050565b600073ffffffffffffffffffffffffffffffffffffffff82169050919050565b60006123ad82612382565b9050919050565b6123bd816123a2565b82525050565b60006020820190506123d860008301846123b4565b92915050565b6123e7816123a2565b81146123f257600080fd5b50565b600081359050612404816123de565b92915050565b60008060408385031215612421576124206121a8565b5b600061242f858286016123f5565b925050602061244085828601612340565b9150509250929050565b6124538161231f565b82525050565b600060208201905061246e600083018461244a565b92915050565b60008060006060848603121561248d5761248c6121a8565b5b600061249b868287016123f5565b93505060206124ac868287016123f5565b92505060406124bd86828701612340565b9150509250925092565b6000602082840312156124dd576124dc6121a8565b5b60006124eb848285016123f5565b91505092915050565b6124fd81612237565b811461250857600080fd5b50565b60008135905061251a816124f4565b92915050565b60008060408385031215612537576125366121a8565b5b6000612545858286016123f5565b92505060206125568582860161250b565b9150509250929050565b600080fd5b600080fd5b7f4e487b7100000000000000000000000000000000000000000000000000000000600052604160045260246000fd5b6125a2826122b3565b810181811067ffffffffffffffff821117156125c1576125c061256a565b5b80604052505050565b60006125d461219e565b90506125e08282612599565b919050565b600067ffffffffffffffff821115612600576125ff61256a565b5b612609826122b3565b9050602081019050919050565b82818337600083830152505050565b6000612638612633846125e5565b6125ca565b90508281526020810184848401111561265457612653612565565b5b61265f848285612616565b509392505050565b600082601f83011261267c5761267b612560565b5b813561268c848260208601612625565b91505092915050565b600080600080608085870312156126af576126ae6121a8565b5b60006126bd878288016123f5565b94505060206126ce878288016123f5565b93505060406126df87828801612340565b925050606085013567ffffffffffffffff811115612700576126ff6121ad565b5b61270c87828801612667565b91505092959194509250565b6000806040838503121561272f5761272e6121a8565b5b600061273d858286016123f5565b925050602061274e858286016123f5565b9150509250929050565b7f4e487b7100000000000000000000000000000000000000000000000000000000600052602260045260246000fd5b6000600282049050600182168061279f57607f821691505b6020821081036127b2576127b1612758565b5b50919050565b7f4552433732313a20617070726f76616c20746f2063757272656e74206f776e6560008201527f7200000000000000000000000000000000000000000000000000000000000000602082015250565b6000612814602183612278565b915061281f826127b8565b604082019050919050565b6000602082019050818103600083015261284381612807565b9050919050565b7f4552433732313a20617070726f76652063616c6c6572206973206e6f7420746f60008201527f6b656e206f776e6572206f7220617070726f76656420666f7220616c6c000000602082015250565b60006128a6603d83612278565b91506128b18261284a565b604082019050919050565b600060208201905081810360008301526128d581612899565b9050919050565b7f4552433732313a2063616c6c6572206973206e6f7420746f6b656e206f776e6560008201527f72206f7220617070726f76656400000000000000000000000000000000000000602082015250565b6000612938602d83612278565b9150612943826128dc565b604082019050919050565b600060208201905081810360008301526129678161292b565b9050919050565b7f4d6178696d756d20737570706c7920616c726561647920726561636865640000600082015250565b60006129a4601e83612278565b91506129af8261296e565b602082019050919050565b600060208201905081810360008301526129d381612997565b9050919050565b7f455243373231456e756d657261626c653a206f776e657220696e646578206f7560008201527f74206f6620626f756e6473000000000000000000000000000000000000000000602082015250565b6000612a36602b83612278565b9150612a41826129da565b604082019050919050565b60006020820190508181036000830152612a6581612a29565b9050919050565b7f455243373231456e756d657261626c653a20676c6f62616c20696e646578206f60008201527f7574206f6620626f756e64730000000000000000000000000000000000000000602082015250565b6000612ac8602c83612278565b9150612ad382612a6c565b604082019050919050565b60006020820190508181036000830152612af781612abb565b9050919050565b7f4e487b7100000000000000000000000000000000000000000000000000000000600052603260045260246000fd5b7f4552433732313a20696e76616c696420746f6b656e2049440000000000000000600082015250565b6000612b63601883612278565b9150612b6e82612b2d565b602082019050919050565b60006020820190508181036000830152612b9281612b56565b9050919050565b7f4552433732313a2061646472657373207a65726f206973206e6f74206120766160008201527f6c6964206f776e65720000000000000000000000000000000000000000000000602082015250565b6000612bf5602983612278565b9150612c0082612b99565b604082019050919050565b60006020820190508181036000830152612c2481612be8565b9050919050565b600081905092915050565b6000612c418261226d565b612c4b8185612c2b565b9350612c5b818560208601612289565b80840191505092915050565b6000612c738285612c36565b9150612c7f8284612c36565b91508190509392505050565b7f4f776e61626c653a206e6577206f776e657220697320746865207a65726f206160008201527f6464726573730000000000000000000000000000000000000000000000000000602082015250565b6000612ce7602683612278565b9150612cf282612c8b565b604082019050919050565b60006020820190508181036000830152612d1681612cda565b9050919050565b7f4552433732313a207472616e736665722066726f6d20696e636f72726563742060008201527f6f776e6572000000000000000000000000000000000000000000000000000000602082015250565b6000612d79602583612278565b9150612d8482612d1d565b604082019050919050565b60006020820190508181036000830152612da881612d6c565b9050919050565b7f4552433732313a207472616e7366657220746f20746865207a65726f2061646460008201527f7265737300000000000000000000000000000000000000000000000000000000602082015250565b6000612e0b602483612278565b9150612e1682612daf565b604082019050919050565b60006020820190508181036000830152612e3a81612dfe565b9050919050565b7f4f776e61626c653a2063616c6c6572206973206e6f7420746865206f776e6572600082015250565b6000612e77602083612278565b9150612e8282612e41565b602082019050919050565b60006020820190508181036000830152612ea681612e6a565b9050919050565b7f4552433732313a20617070726f766520746f2063616c6c657200000000000000600082015250565b6000612ee3601983612278565b9150612eee82612ead565b602082019050919050565b60006020820190508181036000830152612f1281612ed6565b9050919050565b7f4552433732313a207472616e7366657220746f206e6f6e20455243373231526560008201527f63656976657220696d706c656d656e7465720000000000000000000000000000602082015250565b6000612f75603283612278565b9150612f8082612f19565b604082019050919050565b60006020820190508181036000830152612fa481612f68565b9050919050565b7f4e487b7100000000000000000000000000000000000000000000000000000000600052601260045260246000fd5b600081519050919050565b600082825260208201905092915050565b600061300182612fda565b61300b8185612fe5565b935061301b818560208601612289565b613024816122b3565b840191505092915050565b600060808201905061304460008301876123b4565b61305160208301866123b4565b61305e604083018561244a565b81810360608301526130708184612ff6565b905095945050505050565b60008151905061308a816121de565b92915050565b6000602082840312156130a6576130a56121a8565b5b60006130b48482850161307b565b91505092915050565b7f455243373231456e756d657261626c653a20636f6e736563757469766520747260008201527f616e7366657273206e6f7420737570706f727465640000000000000000000000602082015250565b6000613119603583612278565b9150613124826130bd565b604082019050919050565b600060208201905081810360008301526131488161310c565b9050919050565b7f4552433732313a206d696e7420746f20746865207a65726f2061646472657373600082015250565b6000613185602083612278565b91506131908261314f565b602082019050919050565b600060208201905081810360008301526131b481613178565b9050919050565b7f4552433732313a20746f6b656e20616c7265616479206d696e74656400000000600082015250565b60006131f1601c83612278565b91506131fc826131bb565b602082019050919050565b60006020820190508181036000830152613220816131e4565b9050919050565b7f4e487b7100000000000000000000000000000000000000000000000000000000600052601160045260246000fd5b60006132618261231f565b915061326c8361231f565b925082820390508181111561328457613283613227565b5b92915050565b7f4e487b7100000000000000000000000000000000000000000000000000000000600052603160045260246000fdfea2646970667358221220b59dbd83999a0d5202ad1ec76df5ba62d45099ba40be534f8987638cf35c9a8864736f6c63430008110033",
  "linkReferences": {},
  "deployedLinkReferences": {}
}